:0300000002073FB5
:0C073F00787FE4F6D8FD75814B02078638
:100929000425EFEFEFEF013D00014500013E000214
:100939004800000229000002460000022D000002C2
:10094900410000022F0000024A0000024300000299
:10095900310000023B0000022B0000023F000002B0
:10096900350000023300000237000002390000049C
:05097900210000000058
:100B36005389F0438902758A06758C06D28CD2A930
:010B4600228C
:0D0B4700759D0875BCE353A2FB7597012254
:100B2300C2A8D2A9C2AAC2ABD2ACD2AFC2B9D2BAFE
:030B3300C2BC221F
:1007CB00E53D14600E14600F146010240370107F4D
:1007DB0001800E7F02800A7F0480067F0880027FE3
:1007EB00107E80E4FDEF5E6004D2908002C290C266
:1007FB0091D291C291EEC313FE53067F0DBD08E556
:10080B007425253DF8E6FFE53D754800F549053DA6
:10081B00E53DC394054003E4F53D7E80E4FDEF5ECA
:10082B006004D2908002C290C291D291C291EEC369
:0C083B0013FE0DBD08E8C292D292C292DA
:01084700228E
:100B0C00E54520E01130B50EE5492401F52AE43520
:070B1C0048F52943450122C1
:040848000DE4FFFEBE
:08084C008E128F138C148D1520
:10085400AE02AF03EA7053EFB40A00504D9008683B
:10086400F828287302088602088A02088E02089271
:1008740002089602089A02089E0208A20208A6022A
:1008840008AA79118026797D80227923801E79290E
:10089400801A794D8016798980127981800E793D8C
:1008A400800A790180067909800279FFE5136401E1
:0E08B400451270035301FE74252515F8A601A8
:0108C2002213
:100AED00E4FFFEF5BD43BC08000FBF00010EEF642F
:0E0AFD00044E70F453BCE7AFBD7543008F4448
:010B0B0022C7
:100ABF00B294E54475F00AA4FF7400252EF58274F4
:100ACF0000352DF583EFF0052EE52E7002052DC3B1
:0E0ADF009440E52D941F4005E4F52DF52E22E0
:1009CF00EF64014E704074002542F582740035418A
:1009DF00F583E0902000F0740A253AF53AE43539B2
:1009EF00F539E53A64964539700CF539F53A054213
:1009FF00E54270020541C3E5429440E541941F4032
:070A0F0005E4F541F5422268
:080613008F0B8E0A8D098C0883
:10061B0012050E120357D3EF9400EE6480948040C2
:10062B006F750C00750D03E4FFFE7D207C41AB0B59
:10063B00AA0AA909A8081201061203578E0E8F0FDA
:10064B00750C00750D03AE0EAF0F7C007D0A120406
:10065B00258C108D11E50D6402450CAB11AA10AD64
:10066B000DAC0C70047F018002E4FFFE12084CAE4F
:10067B000EAF0F7C007D0A1204258E0E8F0FE50D39
:10068B00150D7002150CC3E50C6480948050B722D5
:10069B00E4FFFEFDFCAB0BAA0AA909A8081202ACE9
:1006AB00501F7525EFAF0BAE0AAD09AC08E4FBFA92
:1006BB00798078BF1201068F0B8E0A8D098C08800A
:1006CB00037525FF750C00750D01AF0BAE0AAD0957
:1006DB00AC081203578E108F11E50D6401450CAB5E
:1006EB0011AA10AD0DAC0C70047F018002E4FFFE6B
:1006FB0012084CAC10AD11E412031EA804A905AAF4
:10070B0006AB07AF0BAE0AAD09AC08120011E4FB48
:10071B00FA792078411201068F0B8E0A8D098C080D
:10072B00050DE50D7002050CC39404E50C64809473
:03073B0080409764
:01073E002298
:1008C300E5442481FDE54334FFFCE412031EE4FB0D
:1008D300FA79A07840120106E4FBFA798078431292
:1008E300020F8F248E238D228C217FE17E7A7D114E
:1008F3007CC2AB24AA23A922A8211201067B337A46
:1009030033792678421200158F248E238D228C2171
:100913000540E5407002053F6403453F7007F53F1E
:06092300F540120613224C
:100A5D00C2AFE4FFFEC3EF952EEE952D500D8F82A4
:100A6D008E83E4F00FBF00010E80EA7F007E007DD3
:100A7D00007C00120613E4F52DF52EF52FF530D27E
:010A8D00AFB9
:010A8E002245
:100A8F00E529702BE52A24FE601114601D240270E5
:100A9F001E1208C3753300753401221208C3753551
:100AAF0000753601E4F533F53422E4F535F53622D9
:03000B00020A16D0
:100A1600C0E0C0F0C083C082C0D075D000C006C0A0
:100A260007120AED0538E538700205376496453732
:100A3600700FE534640145337007F537F538120A4F
:100A4600BFAF36AE351209CFD007D006D0D0D08290
:070A5600D083D0F0D0E032A4
:10097F00120B36120B23120B470547E54770020582
:10098F004664034546700AF546F5471207CB120B2E
:10099F000C120A8FE54530E01C7B0A7A00E4FDFC5F
:1009AF00FFFE12084C120848120848AB2AAA291257
:1009BF0008485345FEE530452F60BE120A5D80B9E9
:10000E000203C3E86480F8E933E83360110460F05A
:10001E00ED33EC337009E8FCE9FDEAFEEBFF220458
:10002E0060DED3EB9FEA9EE99DE8C2E78CF0C2F753
:10003E0095F0400CE8CCF8E9CDF9EACEFAEBCFFB1F
:10004E0012038E85D0F05804700320D5B3E80470E7
:10005E00075002B2D50203CD92D5EC0460F7E4CC82
:10006E00C0E0C398F8603B94186008400DD0E0FBE8
:10007E000203A5E4FBFAC9FC8028E830E406E4C9D3
:10008E00FBE4CAFCE830E305E4C9CACBFCE854073C
:10009E006010F8C3E913F9EA13FAEB13FBEC13FC47
:1000AE00D8F130F52FC3E49CFCEF9BFFEE9AFEEDEA
:1000BE0099FDD0E0FBEF4E4D4C701222DB03020394
:1000CE00CAEC2CFCEF33FFEE33FEED33FDED30E7E3
:1000DE00EB0203A5EF2BFFEE3AFEED39FDD0E0FB70
:1000EE0050130BBB00030203CDED13FDEE13FEEF19
:0800FE0013FFEC13FC0203A543
:10010600EC4D6011E8497017ED33EC3304600DE4F3
:10011600FCFFFEFD22E933E8330470F80203C31244
:10012600038E58046009E4CC248150062850090245
:1001360003CD2840030203CAC0E0EB4A7044B980ED
:1001460006D0E0FB0203B9EF4E701CBD8008EBFF42
:10015600EAFEE9FD80EBE98DF0A4FEE5F00201EF91
:10016600E9CDF9EAFEEBFFEF89F0A4FCE5F0CE89D4
:10017600F0A42EFFE435F0CD89F0A42DFEE435F091
:100186008067EF4E7005BD80D780C3EF8BF0A4ACBF
:10019600F0EE8BF0A42CFCE435F0F8EF8AF0A42CFA
:1001A600E5F038FCE433CB8DF0A42CFCE5F03BF80D
:1001B600EE8AF0A42CFCE5F038F8E433CF89F0A4FD
:1001C6002CFCE5F038CF3400CE89F0A42FFFE5F003
:1001D6003EFEE433C98DF0A42EFEE5F039CD8AF05B
:1001E600A42FFFE5F03EFEE43DFD33D0E0FB5007D3
:1001F6000BBB000F0203CDEC2CFCEF33FFEE33FEFE
:06020600ED33FD0203A52B
:10020C000203CDEC5D046005E8590470030203C3DE
:10021C0012038E580460F6EC4860F2EC7004FDFE9C
:10022C00FF22C860DB2481C85009C39860025006C5
:10023C000203CA9850CAF582E9294B4A7005AB8271
:10024C000203B975F0007C1A7880C3EF9BEE9AED2F
:10025C0099400DC3EF9BFFEE9AFEED99FDE842F03D
:10026C00DC23ACF0D0E0FFD0E0FED0E0FDAB822090
:10027C00E7101BEB60BAEC2CFCEF33FFEE33FEED1A
:10028C0033FD0203A5E803F830E705C0F075F00074
:10029C00EF2FFFEE33FEED33FD40B830E7C280AAFE
:1002AC0074F8CC6480CCC86480C8F582046043C305
:1002BC00EB9FF5F0EA9E42F0E99D42F0E89C45F098
:1002CC0060305018E5825FFFE582F42B5582FB50BD
:1002DC00210ABA001D09B90019088016E5825BFBDA
:1002EC00E582F42F5582FF50090EBE00050DBD00AE
:1002FC00010CC3EB9FF5F0EA9E42F0E99D42F0E859
:0D030C009C45F06007CC4820E701B3EC22CF
:1003190075F020800E75F010800575F0087D007E5F
:10032900007F003392D530D50312045BEC334010C3
:10033900EF33FFEE33FEED33FDEC33FCD5F0ED2268
:0E034900E5F0247EA2D513CC92E7CDCEFF22A4
:10035700EDD2E7CD33EC3392D524814006E4FFFE9E
:10036700FDFC22FCE4CFCECDCC24E0501174FF80FD
:10037700EDC3CC13CCCD13CDCE13CECF13CF04709A
:07038700F030D5DE02045B3B
:1004DE003E9248DA3ECCCCCD3F2AAAAB400000007B
:1004EE003F8000003F9837F03FB504F33FD744FC00
:1004FE003E3172173EB172173F0515913EDE5BD944
:10050E00D2008002C200EDD2E7F8CD33EC33047096
:10051E000BBD800592D50203CD0203C340FBD3145D
:10052E0060F2F5F07C3FEE7A00C39496C8948B404F
:10053E00230AC89469C8941A401A0AC89468C894C1
:10054E001F40110AC8945AC89425400805F07A0035
:10055E00CDC2E7CDC0F08C128D138E148F15EA2309
:10056E0023C0E024EEF582E43404F58312047912FC
:10057E000015ECC0E0EDC0E0EEC0E0EFC0E012040C
:10058E0069A812A913AA14AB15120011D0E0FBD062
:10059E00E0FAD0E0F9D0E0B2E7F812020F8C128D3B
:1005AE00138E148F159004DE74031203D8A812A9AB
:1005BE0013AA14AB15120106D0E0600F24FAF582CF
:1005CE00E43404F5831204791200158C128D138E07
:1005DE00148F15D0E0C3947FFDE49400FC12031E2B
:1005EE007B187A727931783F120106A812A913AAE4
:1005FE0014AB1512001530000B7BD97A5B79DE78BF
:05060E003E120106226E
:10038E00E9D2E7C933E833F892D5EDD2E7CD33ECB5
:07039E0033FC5002B2D5222E
:1003A500EC30E7100FBF000C0EBE00080DBD0004B9
:1003B5000BEB6014A2D5EB13FCED92E7FD2274FF65
:1003C500FCFDFEFF22E480F8A2D574FF13FC7D80BE
:0303D500E480EFD2
:1003D800C0E0EFFBEEFAEDF9ECF8120106D0E0F51B
:1003E800F0EFFBEEFAEDF9ECF8120469A3A3A3A36E
:1003F800E8C0E0E9C0E0EAC0E0EBC0E0C0F012010C
:1004080006120479A3A3A3A3120015D0F0D0E0FB31
:0D041800D0E0FAD0E0F9D0E0F8D5F0D42221
:10074B0002097FE493A3F8E493A34003F68001F23C
:10075B0008DFF48029E493A3F85407240CC8C333AF
:10076B00C4540F4420C8834004F456800146F6DF7E
:10077B00E4800B0102040810204080900929E47EDC
:10078B00019360BCA3FF543F30E509541FFEE49373
:10079B00A360010ECF54C025E060A840B8E493A33A
:1007AB00FAE493A3F8E493A3C8C582C8CAC583CA65
:1007BB00F0A3C8C582C8CAC583CADFE9DEE780BE1D
:01097E000078
:10042500C2D5EC30E709B2D5E4C39DFDE49CFCEEF2
:1004350030E715B2D5E4C39FFFE49EFE120489C3DD
:10044500E49DFDE49CFC800312048930D507C3E4D8
:060455009FFFE49EFE2261
:0E045B00C3E49FFFE49EFEE49DFDE49CFC22B2
:10046900E493FC740193FD740293FE740393FF22D9
:10047900E493F8740193F9740293FA740393FB22D9
:10048900BC000BBE0029EF8DF084FFADF022E4CC57
:10049900F875F008EF2FFFEE33FEEC33FCEE9DEC20
:1004A900984005FCEE9DFE0FD5F0E9E4CEFD22ED66
:1004B900F8F5F0EE8420D21CFEADF075F008EF2FB0
:1004C900FFED33FD4007985006D5F0F222C398FDA1
:0504D9000FD5F0EA223E
:00000001FF
