:0300000002051ADC
:0C051A00787FE4F6D8FD758131020561A0
:04078500023000003E
:10073C0012087112084C120882E52E30E0061207DE
:10074C00CB532EFEE52C24FE600914600E2402709F
:10075C00E880001204041206EB80DEE4FD7F031235
:10076C00068F7D01E4FF12068F7D02E4FF12068FD7
:09077C007D03E4FF12068F80C02A
:03000B000205A645
:1005A600C0E0C0F0C083C082C0D075D000C000C01B
:1005B60001C002C003C004C005C006C007C2AF1216
:1005C600085F8F20B295AC20E41202B6E4FBFAF97C
:1005D600784012020FE4FBFAF97843120015120272
:1005E600EA8F1D0521E521C39496400B752100E590
:1005F6002CB4010312080A120620120832D2AFD018
:1006060007D006D005D004D003D002D001D000D048
:0A061600D0D082D083D0F0D0E032C3
:0D088200759D1075BCE453A2FB7597012213
:100871005389F0438902758A06758C06D28CD2A9F8
:010881002254
:10084C00C2A8D2A9C2AAD2ABD2ACD2AFC2B9D2BAC8
:03085C00C2BC22F9
:10078900012400012100011E00012080011D8001BA
:0A0799001F0002220000021B0000F6
:10085F0043BC8C00000000E5BC30E4FB53BCEFAFA1
:02086F00BD22A8
:10080A00051CE51CAE1B7002051B142400F582743E
:10081A00003EF583E51DF0C3E51C9440E51B941FDB
:08082A004005E4F51BF51C225A
:1006EB00E52C24FE600F047047904000E51DF09050
:1006FB002000E4F022904000E51DF074002523F566
:10070B008274003522F583E0902000F0051EE51E73
:10071B00C39414400BE4F51E0523E5237002052258
:10072B00C3E5239440E522941F4005E4F522F5230D
:01073B00229B
:0C07A300012D00012F00012E00012C0090
:10083200E52E20E01430B505E52D04800730B4091B
:0A084200E52D2405F52F432E0122B9
:1007CB00E52F24FE601014601624027031752C0185
:1007DB00E4FD7F018010752C02E4FD7F028007751C
:1007EB002C03E4FD7F0312068F7D01E4FF12068FBD
:0F07FB007D02E4FF12068F7D03E4FF12068F22BA
:1007AF000408111111110A11117D23294D89813D61
:0B07BF000109011000040C0000000004
:10040400E4F52BF52AF529F528AC1D1202B6E4FB18
:10041400FAF978C3120015E4FBFAF9784312020FD3
:10042400E4FBFA79A078401201068F2B8E2A8D29DD
:100434008C28A804A905AA06AB071201067B857AB5
:10044400EB79397841120106C004C005C006C00723
:100454007FD77E237D807C42AB2BAA2AA929A8289A
:10046400120106A804A905AA06AB07D007D006D036
:1004740005D0041200117B527A3879C778421200F1
:10048400158F0F8E0E8D0D8C0C1202EAAB07AA0687
:100494007C007D6412036B7C007D0A12036B8D2546
:1004A4007C007D0AAF03AE0212036B7C007D0A124E
:1004B400036B8D26AF0FAE0EAD0DAC0C1202EAAB82
:1004C40007AA067C007D0A12036B8D27AD03AC02DC
:1004D400EC1202B1A804A905AA06AB07AF0FAE0E31
:1004E400AD0DAC0C120011E4FBFA79207841120135
:1004F400061202EA74112525F8E6F508741125267A
:10050400F8E6F50974112527F8E654FEF50A741186
:050514002FF8E6F50BD5
:0105190022BF
:10062000E51014600B14600C2402700C7F01800A2A
:100630007F0280067F0480027F087E80E4FDEF5EFB
:100640006004D2908002C290C291D291C291EEC356
:1006500013FE0DBD08E874082510F8E6FF85102D7F
:100660000510E510C394044003E4F5107E80E4FD1A
:10067000EF5E6004D2908002C290C291D291C2918A
:0E068000EEC313FE0DBD08E8C292D292C292E4
:01068E002249
:10068F00EFB40A00504D90069CF82828730206BA62
:10069F000206BE0206C20206C60206CA0206CE0243
:1006AF0006D20206D60206DA0206DE7E1180267E0A
:1006BF007D80227E23801E7E29801A7E4D80167EAD
:1006CF008980127E81800E7E3D800A7E0180067EAB
:0B06DF000980027EFF74082DF8A606BB
:0106EA0022ED
:10000E00020356E86480F8E933E83360110460F0C7
:10001E00ED33EC337009E8FCE9FDEAFEEBFF220458
:10002E0060DED3EB9FEA9EE99DE8C2E78CF0C2F753
:10003E0095F0400CE8CCF8E9CDF9EACEFAEBCFFB1F
:10004E0012032185D0F05804700320D5B3E8047054
:10005E00075002B2D502036092D5EC0460F7E4CCEF
:10006E00C0E0C398F8603B94186008400DD0E0FBE8
:10007E00020338E4FBFAC9FC8028E830E406E4C940
:10008E00FBE4CAFCE830E305E4C9CACBFCE854073C
:10009E006010F8C3E913F9EA13FAEB13FBEC13FC47
:1000AE00D8F130F52FC3E49CFCEF9BFFEE9AFEEDEA
:1000BE0099FDD0E0FBEF4E4D4C701222DB03020394
:1000CE005DEC2CFCEF33FFEE33FEED33FDED30E750
:1000DE00EB020338EF2BFFEE3AFEED39FDD0E0FBDD
:1000EE0050130BBB0003020360ED13FDEE13FEEF86
:0800FE0013FFEC13FC020338B0
:10010600EC4D6011E8497017ED33EC3304600DE4F3
:10011600FCFFFEFD22E933E8330470F802035612B1
:10012600032158046009E4CC2481500628500902B2
:10013600036028400302035DC0E0EB4A7044B980C7
:1001460006D0E0FB02034CEF4E701CBD8008EBFFAF
:10015600EAFEE9FD80EBE98DF0A4FEE5F00201EF91
:10016600E9CDF9EAFEEBFFEF89F0A4FCE5F0CE89D4
:10017600F0A42EFFE435F0CD89F0A42DFEE435F091
:100186008067EF4E7005BD80D780C3EF8BF0A4ACBF
:10019600F0EE8BF0A42CFCE435F0F8EF8AF0A42CFA
:1001A600E5F038FCE433CB8DF0A42CFCE5F03BF80D
:1001B600EE8AF0A42CFCE5F038F8E433CF89F0A4FD
:1001C6002CFCE5F038CF3400CE89F0A42FFFE5F003
:1001D6003EFEE433C98DF0A42EFEE5F039CD8AF05B
:1001E600A42FFFE5F03EFEE43DFD33D0E0FB5007D3
:1001F6000BBB000F020360EC2CFCEF33FFEE33FE6B
:06020600ED33FD02033898
:10020C00020360EC5D046005E859047003020356B8
:10021C00120321580460F6EC4860F2EC7004FDFE09
:10022C00FF22C860DB2481C85009C39860025006C5
:10023C0002035D9850CAF582E9294B4A7005AB82DE
:10024C0002034C75F0007C1A7880C3EF9BEE9AED9C
:10025C0099400DC3EF9BFFEE9AFEED99FDE842F03D
:10026C00DC23ACF0D0E0FFD0E0FED0E0FDAB822090
:10027C00E7101BEB60BAEC2CFCEF33FFEE33FEED1A
:10028C0033FD020338E803F830E705C0F075F000E1
:10029C00EF2FFFEE33FEED33FD40B830E7C280AAFE
:1002AC0075F020800E75F010800575F0087D007ECD
:1002BC00007F003392D530D5031203A1EC334010EC
:1002CC00EF33FFEE33FEED33FDEC33FCD5F0ED22D6
:0E02DC00E5F0247EA2D513CC92E7CDCEFF2212
:1002EA00EDD2E7CD33EC3392D524814006E4FFFE0C
:1002FA00FDFC22FCE4CFCECDCC24E0501174FF806B
:10030A00EDC3CC13CCCD13CDCE13CECF13CF047007
:07031A00F030D5DE0203A163
:10032100E9D2E7C933E833F892D5EDD2E7CD33EC22
:0703310033FC5002B2D5229B
:10033800EC30E7100FBF000C0EBE00080DBD000426
:100348000BEB6014A2D5EB13FCED92E7FD2274FFD2
:10035800FCFDFEFF22E480F8A2D574FF13FC7D802B
:03036800E480EF3F
:1005260002073CE493A3F8E493A34003F68001F2A8
:1005360008DFF48029E493A3F85407240CC8C333D6
:10054600C4540F4420C8834004F456800146F6DFA5
:10055600E4800B0102040810204080900785E47EA9
:10056600019360BCA3FF543F30E509541FFEE4939A
:10057600A360010ECF54C025E060A840B8E493A361
:10058600FAE493A3F8E493A3C8C582C8CAC583CA8C
:10059600F0A3C8C582C8CAC583CADFE9DEE780BE44
:0107CA00002E
:10036B00C2D5EC30E709B2D5E4C39DFDE49CFCEEAD
:10037B0030E715B2D5E4C39FFFE49EFE1203AFC373
:10038B00E49DFDE49CFC80031203AF30D507C3E46E
:06039B009FFFE49EFE221C
:0E03A100C3E49FFFE49EFEE49DFDE49CFC226D
:1003AF00BC000BBE0029EF8DF084FFADF022E4CC32
:1003BF00F875F008EF2FFFEE33FEEC33FCEE9DECFB
:1003CF00984005FCEE9DFE0FD5F0E9E4CEFD22ED41
:1003DF00F8F5F0EE8420D21CFEADF075F008EF2F8B
:1003EF00FFED33FD4007985006D5F0F222C398FD7C
:0503FF000FD5F0EA2219
:00000001FF
