:0300000002000EED
:0C000E00787FE4F6D8FD75810E020055E5
:0D015F0004087D23294D010C00020D000055
:10014E005389F0438902758A06758C06D28CD2A922
:01015E00227E
:10013B00C2A8D2A9C2AAC2ABD2ACD2AFC2B9D2BAF0
:03014B00C2BC2211
:10009A00E50C14600B14600C2402700C7F01800ABA
:1000AA007F0280067F0480027F087E80E4FDEF5E87
:1000BA006004D2908002C290C291D291C291EEC3E2
:1000CA0013FE0DBD08E87408250CF8E6FF050CE5DB
:1000DA000CC394044003E4F50C7E80E4FDEF5E60FB
:1000EA0004D2908002C290C291D291C291EEC313FF
:0B00FA00FE0DBD08E8C292D292C29237
:0101050022D7
:03000B00020106E9
:10010600C0E0C0D075D000C000C005C006C007C2A0
:10011600AF050EE50E7002050D6414450D7007F56A
:100126000DF50E12009AD2AFD007D006D005D0003A
:05013600D0D0D0E03242
:0800030012014E12013B80FEC8
:10001A00020003E493A3F8E493A34003F68001F2F9
:10002A0008DFF48029E493A3F85407240CC8C333E7
:10003A00C4540F4420C8834004F456800146F6DFB6
:10004A00E4800B010204081020408090015FE47EE6
:10005A00019360BCA3FF543F30E509541FFEE493AB
:10006A00A360010ECF54C025E060A840B8E493A372
:10007A00FAE493A3F8E493A3C8C582C8CAC583CA9D
:10008A00F0A3C8C582C8CAC583CADFE9DEE780BE55
:01016C000092
:00000001FF
