:030000000208FFF4
:0C08FF00787FE4F6D8FD75814E020946B2
:100C7C00120CB7120C92120CC8E54D30E0FB120AA4
:060C8C0082534DFE80F3CF
:03000B00020BFBEA
:100BFB00C0E0C0F0C083C082C0D075D000C000C0C0
:100C0B0001C002C003C004C005C006C007C2AF12BA
:100C1B000CA58F31D007D006D005D004D003D0025D
:0F0C2B00D001D000D0D0D082D083D0F0D0E03232
:0D0CC800759D0875BCE353A2FB75970122D2
:100CB7005389F0438902758A06758C06D28CD2A9AE
:010CC700220A
:100C9200C2A8D2A9C2AAD2ABD2ACD2AFC2B9D2BA7E
:030CA200C2BC22AF
:10098B00013980013880013180012D81012E8101D7
:10099B003600013000013200012B01012C01013A1C
:1009AB0000012F00012940013700013440012A00CA
:1009BB000135400133010223000002210000042510
:1009CB0000000000043B00000000043F000000009A
:100CA50043BC8B00000000E5BC30E4FB53BCEFAF58
:020CB500BD225E
:100C3A000522E522AE2170020521142400F58274F2
:100C4A00003EF583E531F0C3E5229440E521941F87
:080C5A004005E4F521F522221A
:10074E0085312E052AE52ED394804042E52DD39493
:10075E0080503B852A2CE52B6031FFC3E52C9FFD95
:10076E00E49400FCE412031E120CD5C004C005C0B4
:10077E0006C007AC3AE4120323D003D002D001D056
:10078E00001200151203578F3A0532852C2B852E39
:10079E002DE531D395394003853139E531C395388F
:1007AE005003853138E52AC394FA407BAC32E4120B
:1007BE000323C004C005C006C007AC3AE4120323ED
:1007CE00D003D002D001D00012020FA804A905AAAE
:1007DE0006AB077F007E807DBB7C4412020F8F3EEE
:1007EE008E3D8D3C8C3BC3E5399538FDE49400FC81
:1007FE00E412031EE4FBFA7980784312020FE4FB45
:10080E00FA79A078401201068F428E418D408C3FBE
:10081E00E4F53AF532F52AF52CF52B752E81752D6A
:08082E008175388075398022C4
:100BA700E54324FE600C1460311460042403704391
:100BB7008035904000E531F0AF37053774002FF5E9
:100BC70082E43400F583E0902000F0C3E5379440D9
:100BD7007480949F401DE4F53722904000E531F082
:100BE7009020007480F022904000E531F0902000C2
:040BF700E530F022D3
:10083600E54B24FE607C1470030208D21470030298
:1008460008EB240360030208FB0524E52470020577
:1008560023D39468E52394014005E4F523F524ACFD
:1008660023AD24E412031E7BDB7A0F79497840120C
:100876000106E4FBFA7934784312020F1205068F5B
:10088600288E278D268C25E4FFFE7D807C3FAB28B5
:10089600AA27A926A825120015E4FBFAF978401222
:1008A600020FE4FBFA797F78431201061203578F91
:1008B6003022E533600C0535E535B4FF0BE4F5333E
:1008C6008006D5350375330185353022052FE52F92
:1008D600B4C803E4F52FE52FD3946440047530FFC4
:1008E60022E4F530220534E534D394FF4003E4F5E1
:0908F60034853430227530802273
:100AEB00AC46E4120323C004C005C006C007AC30FB
:100AFB00E4120323D003D002D001D00012020FE482
:100B0B00FBFAF97843120015C004C005C006C007F4
:100B1B00AC46E4120323A804A905AA06AB07E4FF1D
:100B2B00FEFD7C4312020FA804A905AA06AB07D051
:100B3B0007D006D005D0041200111203578F3022B4
:04061600E5446072E5
:10061A00E4F517F518F519F51AAF3EAE3DAD3CAC49
:10062A003B1203578E178F187C007D0A120425741B
:10063A000D2DF8E6F50BAE17AF187C007D0A1204F3
:10064A00257C007D0A120425740D2DF8E6F50AAE04
:10065A0017AF187C007D641204257C007D0A120401
:10066A0025740D2DF8E6F509AE17AF187C037DE861
:10067A001204257C007D0A120425740D2DF8E6F576
:01068A000867
:10068B0022E545700302074DE4FFFEFDFCAB42AAD9
:10069B0041A940A83F1202AC500302074DE4FFFEF4
:1006AB007D207C41AB42AA41A940A83F1202AC403D
:0406BB000302074DE2
:1006BF00E4F517F518F519F51AAF42AE41AD40AC98
:1006CF003F1203578E178F18AC17AD18E412031E85
:1006DF00A804A905AA06AB07AF42AE41AD40AC3F97
:1006EF00120011E4FBFA797A7844120106120357CB
:1006FF008E198F1A740D2518F8E654FEF5087C0034
:10070F007D641204257C007D0A120425740D2DF8DA
:10071F00E6F509AE19AF1A7C007D0A1204257C009C
:10072F007D0A120425740D2DF8E6F50AAE19AF1ADD
:0E073F007C007D0A120425740D2DF8E6F50BE2
:01074D002289
:1009DB00014A0001460201450001440001490001A2
:1009EB004C00014E00014D00014300014B0002473A
:0209FB000004F6
:100C6200E54D20E01430B505E54C04800730B409A9
:0A0C7200E54C2405F54E434D012228
:100A8200E54E24FE60251460402402705B7543012C
:100A9200E4FD7F01120B4B7D01E4FF120B4B7D0243
:100AA200E4FF120B4B7D03AF4B803A754302E4FD2A
:100AB2007F02120B4B7D01E4FF120B4B7D02E4FF20
:100AC200120B4B7D03E4FF801C754303E4FD7F039F
:100AD200120B4B7D01E4FF120B4B7D02E4FF120B64
:090AE2004B7D03E4FF120B4B22D3
:1009FD000408111111110A0D117D23294D89813D15
:050A0D000109010C00CD
:100A1300E50C14600B14600C2402700C7F01800A37
:100A23007F0280067F0480027F087E80E4FDEF5E04
:100A33006004D2908002C290C291D291C291EEC35F
:100A430013FE0DBD08E87408250CF8E6FF850C4C71
:100A5300050CE50CC394044003E4F50C7E80E4FD2F
:100A6300EF5E6004D2908002C290C291D291C29193
:0E0A7300EEC313FE0DBD08E8C292D292C292ED
:010A81002252
:100B4B00EFB40A00504D900B58F8282873020B761F
:100B5B00020B7A020B7E020B82020B86020B8A02BD
:100B6B000B8E020B92020B96020B9A7E1180267E45
:100B7B007D80227E23801E7E29801A7E4D80167EEC
:100B8B008980127E81800E7E3D800A7E0180067EEA
:0B0B9B000980027EFF74082DF8A606FA
:010BA600222C
:10000E000203C3E86480F8E933E83360110460F05A
:10001E00ED33EC337009E8FCE9FDEAFEEBFF220458
:10002E0060DED3EB9FEA9EE99DE8C2E78CF0C2F753
:10003E0095F0400CE8CCF8E9CDF9EACEFAEBCFFB1F
:10004E0012038E85D0F05804700320D5B3E80470E7
:10005E00075002B2D50203CD92D5EC0460F7E4CC82
:10006E00C0E0C398F8603B94186008400DD0E0FBE8
:10007E000203A5E4FBFAC9FC8028E830E406E4C9D3
:10008E00FBE4CAFCE830E305E4C9CACBFCE854073C
:10009E006010F8C3E913F9EA13FAEB13FBEC13FC47
:1000AE00D8F130F52FC3E49CFCEF9BFFEE9AFEEDEA
:1000BE0099FDD0E0FBEF4E4D4C701222DB03020394
:1000CE00CAEC2CFCEF33FFEE33FEED33FDED30E7E3
:1000DE00EB0203A5EF2BFFEE3AFEED39FDD0E0FB70
:1000EE0050130BBB00030203CDED13FDEE13FEEF19
:0800FE0013FFEC13FC0203A543
:10010600EC4D6011E8497017ED33EC3304600DE4F3
:10011600FCFFFEFD22E933E8330470F80203C31244
:10012600038E58046009E4CC248150062850090245
:1001360003CD2840030203CAC0E0EB4A7044B980ED
:1001460006D0E0FB0203B9EF4E701CBD8008EBFF42
:10015600EAFEE9FD80EBE98DF0A4FEE5F00201EF91
:10016600E9CDF9EAFEEBFFEF89F0A4FCE5F0CE89D4
:10017600F0A42EFFE435F0CD89F0A42DFEE435F091
:100186008067EF4E7005BD80D780C3EF8BF0A4ACBF
:10019600F0EE8BF0A42CFCE435F0F8EF8AF0A42CFA
:1001A600E5F038FCE433CB8DF0A42CFCE5F03BF80D
:1001B600EE8AF0A42CFCE5F038F8E433CF89F0A4FD
:1001C6002CFCE5F038CF3400CE89F0A42FFFE5F003
:1001D6003EFEE433C98DF0A42EFEE5F039CD8AF05B
:1001E600A42FFFE5F03EFEE43DFD33D0E0FB5007D3
:1001F6000BBB000F0203CDEC2CFCEF33FFEE33FEFE
:06020600ED33FD0203A52B
:10020C000203CDEC5D046005E8590470030203C3DE
:10021C0012038E580460F6EC4860F2EC7004FDFE9C
:10022C00FF22C860DB2481C85009C39860025006C5
:10023C000203CA9850CAF582E9294B4A7005AB8271
:10024C000203B975F0007C1A7880C3EF9BEE9AED2F
:10025C0099400DC3EF9BFFEE9AFEED99FDE842F03D
:10026C00DC23ACF0D0E0FFD0E0FED0E0FDAB822090
:10027C00E7101BEB60BAEC2CFCEF33FFEE33FEED1A
:10028C0033FD0203A5E803F830E705C0F075F00074
:10029C00EF2FFFEE33FEED33FD40B830E7C280AAFE
:1002AC0074F8CC6480CCC86480C8F582046043C305
:1002BC00EB9FF5F0EA9E42F0E99D42F0E89C45F098
:1002CC0060305018E5825FFFE582F42B5582FB50BD
:1002DC00210ABA001D09B90019088016E5825BFBDA
:1002EC00E582F42F5582FF50090EBE00050DBD00AE
:1002FC00010CC3EB9FF5F0EA9E42F0E99D42F0E859
:0D030C009C45F06007CC4820E701B3EC22CF
:1003190075F020800E75F010800575F0087D007E5F
:10032900007F003392D530D50312047AEC334010A4
:10033900EF33FFEE33FEED33FDEC33FCD5F0ED2268
:0E034900E5F0247EA2D513CC92E7CDCEFF22A4
:10035700EDD2E7CD33EC3392D524814006E4FFFE9E
:10036700FDFC22FCE4CFCECDCC24E0501174FF80FD
:10037700EDC3CC13CCCD13CDCE13CECF13CF04709A
:07038700F030D5DE02047A1C
:0D0CD500ED33EC3360065004EC6480FC222B
:1004A8003A70FA83BCAAE9E43E81E0F8BF9DE9E628
:1004B8003F80000039283C1ABB9969663DA335E3A3
:1004C800BF255DE73FC90FDB418DDBCCC44936EE64
:1004D80045C9913FC5B0F83D3F800000C317F534CA
:1004E800452FFA73C60AFDDD12059704A2E19200B2
:1004F8001420E0159004A874041203D8802612056D
:100508009730E102B20020E0EB8C1B8D1C8E1D8F12
:100518001E9004BC74041203D8A81BA91CAA1DAB06
:100528001E120106ED4C6007300004EC6480FC22CA
:10053800120597C0E08C1B8D1C8E1D8F1E9004E049
:1005480074031203D8A81BA91CAA1DAB1E1201060E
:10055800ECC51BFCEDC51CFDEEC51DFEEFC51EFF61
:100568009004D074031203D8D082A81BA91CAA1D1A
:10057800AB1EE58230E00712020FB20080A6EFCB77
:10058800FFEECAFEEDC9FDECC8FC12020F8095ED26
:1005980033EC547FCC33920024605007D0E0D0E095
:1005A8000203C37B837AF97922783E120106EDF9BA
:1005B80033ECF83324815011EFFBEEFA1203571293
:1005C8000319ECB2E7FC120015ED33EC33602F246D
:1005D80003F8C313FCED92E7FDE82481E4501FEC17
:1005E800F8EDF9EEFAEFFB120357EF04C2E0FCF561
:1005F80082120323ECB2E7FC120015E58203FAED40
:0E06080033EC3360071413FCED92E7FDEA2299
:10038E00E9D2E7C933E833F892D5EDD2E7CD33ECB5
:07039E0033FC5002B2D5222E
:1003A500EC30E7100FBF000C0EBE00080DBD0004B9
:1003B5000BEB6014A2D5EB13FCED92E7FD2274FF65
:1003C500FCFDFEFF22E480F8A2D574FF13FC7D80BE
:0303D500E480EFD2
:1003D800C0E0EFFBEEFAEDF9ECF8120106D0E0F51B
:1003E800F0EFFBEEFAEDF9ECF8120488A3A3A3A34F
:1003F800E8C0E0E9C0E0EAC0E0EBC0E0C0F012010C
:1004080006120498A3A3A3A3120015D0F0D0E0FB12
:0D041800D0E0FAD0E0F9D0E0F8D5F0D42221
:10090B00020C7CE493A3F8E493A34003F68001F27A
:10091B0008DFF48029E493A3F85407240CC8C333ED
:10092B00C4540F4420C8834004F456800146F6DFBC
:10093B00E4800B010204081020408090098BE47EB8
:10094B00019360BCA3FF543F30E509541FFEE493B1
:10095B00A360010ECF54C025E060A840B8E493A378
:10096B00FAE493A3F8E493A3C8C582C8CAC583CAA3
:10097B00F0A3C8C582C8CAC583CADFE9DEE780BE5B
:010A120000E3
:10042500BC000BBE0029EF8DF084FFADF022E4CCBB
:10043500F875F008EF2FFFEE33FEEC33FCEE9DEC84
:10044500984005FCEE9DFE0FD5F0E9E4CEFD22EDCA
:10045500F8F5F0EE8420D21CFEADF075F008EF2F14
:10046500FFED33FD4007985006D5F0F222C398FD05
:050475000FD5F0EA22A2
:0E047A00C3E49FFFE49EFEE49DFDE49CFC2293
:10048800E493FC740193FD740293FE740393FF22BA
:10049800E493F8740193F9740293FA740393FB22BA
:00000001FF
