:03000000020B519F
:0C0B5100787FE4F6D8FD75814D020B980A
:100E2500120E60120E3B120E71E54C30E0FB1206FD
:060E350022534CFE80F385
:03000B00020A9254
:100A9200C0E0C0F0C083C082C0D075D000C000C02A
:100AA20001C002C003C004C005C006C007C2AF1225
:100AB2000E4E8F31B295AC31E412032FE4FBFAF9FA
:100AC200784012020FE4FBFA798078421200151284
:100AD20003638F31E543B401261208A7AC30E41258
:100AE200032FE4FBFAF9784012020FE4FBFA798053
:100AF20078421200151203638F30120DE3802AE54B
:100B02004364026024E543B403081209AC12076F80
:100B12008017E543B404120536E536C3954440090F
:100B22007536001208A7120CD3120C64120E0B12A7
:100B32000D8FD2AFD007D006D005D004D003D0029B
:0F0B4200D001D000D0D0D082D083D0F0D0E0321C
:0D0E7100759D0875BCE353A2FB7597012227
:100E60005389F0438902758A06758C06D28CD2A903
:010E7000225F
:100E3B00C2A8D2A9C2AAD2ABD2ACD2AFC2B9D2BAD3
:030E4B00C2BC2204
:100BDD00013980013880013180012D81012E810183
:100BED003600013000013200012B01012C01013AC8
:100BFD0000012F00012940013700013440012A0076
:100C0D0001354001330102230000022100000425BB
:100C1D0000000000043B00000000043F0000000045
:100E4E0043BC8B00000000E5BC30E4FB53BCEFAFAD
:020E5E00BD22B3
:100DE3000522E522AE2170020521142400F5827448
:100DF300003EF583E531F0C3E5229440E521941FDD
:080E03004005E4F521F522226F
:1009AC0085312E052AE52ED394804041E52DD39434
:1009BC0080503A852A2CE52B6030FFC3E52C9FFD37
:1009CC00E49400FC12032A120E7EC004C005C0067B
:1009DC00C007AC3AE412032FD003D002D001D000F0
:1009EC001200151203638F3A0532852C2B852E2DA0
:1009FC00E531D395394003853139E531C39538500C
:100A0C0003853138E52AC394FA407AE4F52AAC32EE
:100A1C0012032FC004C005C006C007AC3AE4120391
:100A2C002FD003D002D001D00012020FA804A905C8
:100A3C00AA06AB077F007E807DBB7C4412020F8F21
:100A4C003E8E3D8D3C8C3BC3E5399538FDE49400DE
:100A5C00FC12032AE4FBFA7980784312020FE4FBC0
:100A6C00FA79A078401201068F428E418D408C3F5E
:100A7C00E4F53AF532F52CF52B752E81752D817533
:060A8C003880753980225C
:100D8F00E54324FE600C14603114600424037043A7
:100D9F008035904000E531F0AF37053774002FF5FF
:100DAF0082E43400F583E0902000F0C3E5379440EF
:100DBF007480949F401DE4F53722904000E531F098
:100DCF009020007480F022904000E531F0902000D8
:040DDF00E530F022E9
:1008A7000536E54A24FE700302093A14700302096B
:1008B7006B14700302098E240360030209A8E5364E
:1008C700C39544400BE4F5360524E524700205235F
:1008D700D3E5249468E52394014005E4F523F52442
:1008E700AC23AD24E412032A7BDB7A0F79497840E5
:1008F700120106E4FBFA7934784312020F1205124B
:100907008F288E278D268C25E4FFFE7D807C3FABCC
:1009170028AA27A926A825120015E4FBFAF978408A
:1009270012020FE4FBFA797F784312010612036380
:100937008F3022E5336016E536C395444005E4F56C
:10094700360535E535B4FF18E4F5338013E536C3CE
:1009570095444005E4F5361535E5357003753301E3
:1009670085353022E536C395444005E4F536052F35
:10097700E52FB4C803E4F52FE52FD394644004753D
:1009870030FF22E4F53022E536C395444005E4F50F
:10099700360534E534D394FF4003E4F53485343029
:0509A7002275308022E2
:100CD300AC46E412032FC004C005C006C007AC3005
:100CE300E412032FD003D002D001D00012020FE48C
:100CF300FBFAF97843120015C004C005C006C0070B
:100D0300AC46E412032FA804A905AA06AB07E4FF27
:100D1300FEFD7C4312020FA804A905AA06AB07D067
:100D230007D006D005D0041200111203638F3022BE
:04076F00E54560728A
:10077300E4F517F518F519F51AAF3EAE3DAD3CACEF
:100783003B1203638E178F187C007D0A12043174A9
:100793000D2DF8E6F50BAE17AF187C007D0A120499
:1007A300317C007D0A120431740D2DF8E6F50AAE92
:1007B30017AF187C007D641204317C007D0A12049B
:1007C30031740D2DF8E6F509AE17AF187C037DE8FB
:1007D3001204317C007D0A120431740D2DF8E6F504
:0107E300080D
:1007E40022E54770030208A6E4FFFEFDFCAB42AA23
:1007F40041A940A83F1202AC50030208A6E4FFFE40
:100804007D207C41AB42AA41A940A83F1202AC40E2
:04081400030208A62D
:10081800E4F517F518F519F51AAF42AE41AD40AC3D
:100828003F1203638E178F18AC17AD18E412032A12
:10083800A804A905AA06AB07AF42AE41AD40AC3F3C
:10084800120011E4FBFA797A784412010612036364
:100858008E198F1A740D2518F8E654FEF5087C00D9
:100868007D641204317C007D0A120431740D2DF868
:10087800E6F509AE19AF1A7C007D0A1204317C0036
:100888007D0A120431740D2DF8E6F50AAE19AF1A77
:0E0898007C007D0A120431740D2DF8E6F50B7C
:0108A600222F
:100C2D00014900014602014700014500014800014C
:100C3D004404014B00014D00014C00014300014AE9
:010C4D0000A6
:100E0B00E54C20E01430B505E54B04800730B40900
:0A0E1B00E54B2405F54D434C012280
:10062200E54D14B40800400302076E90063B75F0D6
:1006320003A4C58325F0C5837302065302065C0238
:1006420006650206840206A30206E20207110207F9
:1006520040754301E4FD7F01802F754302E4FD7F75
:10066200028007754303E4FD7F03120D337D01E42D
:10067200FF120D337D02E4FF120D337D03E4FF020E
:10068200074C754304E4FD7F04120D337D01E4FF42
:10069200120D337D02E4FF120D337D03AF4A0207D0
:1006A2004CE543B4010A754A017D03AF4A02074C87
:1006B200E5436402700302076EE543B40307E4F501
:1006C2004775450122E5436404600302076EE5486D
:1006D2006003754404E549700302076E7546022201
:1006E200E543B40109754A027D03AF4A805CE543E4
:1006F200B40307E4F54575470122E5436404706CD1
:10070200E5486003754403E549606175460322E5E7
:1007120043B40109754A037D03AF4A802DE543B412
:100722000307754801E4F54922E5436404703DE599
:10073200486003754402E549603275460422E54388
:10074200B4010A754A047D03AF4A020D33E543B48E
:100752000307E4F54875490122E543B4040EE54870
:0D0762006003754401E549600375460522FA
:100C4E000408111111110A0D117D23294D89813DC1
:050C5E000109010C007A
:100C6400E50C14600B14600C2402700C7F01800AE4
:100C74007F0280067F0480027F087E80E4FDEF5EB1
:100C84006004D2908002C290C291D291C291EEC30C
:100C940013FE0DBD08E87408250CF8E6FF850C4B1F
:100CA400050CE50CC394044003E4F50C7E80E4FDDC
:100CB400EF5E6004D2908002C290C291D291C29140
:0E0CC400EEC313FE0DBD08E8C292D292C2929A
:010CD20022FF
:100D3300EFB40A00504D900D40F8282873020D5E61
:100D4300020D62020D66020D6A020D6E020D720241
:100D53000D76020D7A020D7E020D827E1180267EB3
:100D63007D80227E23801E7E29801A7E4D80167E02
:100D73008980127E81800E7E3D800A7E0180067E00
:0B0D83000980027EFF74082DF8A60610
:010D8E002242
:10000E000203CFE86480F8E933E83360110460F04E
:10001E00ED33EC337009E8FCE9FDEAFEEBFF220458
:10002E0060DED3EB9FEA9EE99DE8C2E78CF0C2F753
:10003E0095F0400CE8CCF8E9CDF9EACEFAEBCFFB1F
:10004E0012039A85D0F05804700320D5B3E80470DB
:10005E00075002B2D50203D992D5EC0460F7E4CC76
:10006E00C0E0C398F8603B94186008400DD0E0FBE8
:10007E000203B1E4FBFAC9FC8028E830E406E4C9C7
:10008E00FBE4CAFCE830E305E4C9CACBFCE854073C
:10009E006010F8C3E913F9EA13FAEB13FBEC13FC47
:1000AE00D8F130F52FC3E49CFCEF9BFFEE9AFEEDEA
:1000BE0099FDD0E0FBEF4E4D4C701222DB03020394
:1000CE00D6EC2CFCEF33FFEE33FEED33FDED30E7D7
:1000DE00EB0203B1EF2BFFEE3AFEED39FDD0E0FB64
:1000EE0050130BBB00030203D9ED13FDEE13FEEF0D
:0800FE0013FFEC13FC0203B137
:10010600EC4D6011E8497017ED33EC3304600DE4F3
:10011600FCFFFEFD22E933E8330470F80203CF1238
:10012600039A58046009E4CC248150062850090239
:1001360003D92840030203D6C0E0EB4A7044B980D5
:1001460006D0E0FB0203C5EF4E701CBD8008EBFF36
:10015600EAFEE9FD80EBE98DF0A4FEE5F00201EF91
:10016600E9CDF9EAFEEBFFEF89F0A4FCE5F0CE89D4
:10017600F0A42EFFE435F0CD89F0A42DFEE435F091
:100186008067EF4E7005BD80D780C3EF8BF0A4ACBF
:10019600F0EE8BF0A42CFCE435F0F8EF8AF0A42CFA
:1001A600E5F038FCE433CB8DF0A42CFCE5F03BF80D
:1001B600EE8AF0A42CFCE5F038F8E433CF89F0A4FD
:1001C6002CFCE5F038CF3400CE89F0A42FFFE5F003
:1001D6003EFEE433C98DF0A42EFEE5F039CD8AF05B
:1001E600A42FFFE5F03EFEE43DFD33D0E0FB5007D3
:1001F6000BBB000F0203D9EC2CFCEF33FFEE33FEF2
:06020600ED33FD0203B11F
:10020C000203D9EC5D046005E8590470030203CFC6
:10021C0012039A580460F6EC4860F2EC7004FDFE90
:10022C00FF22C860DB2481C85009C39860025006C5
:10023C000203D69850CAF582E9294B4A7005AB8265
:10024C000203C575F0007C1A7880C3EF9BEE9AED23
:10025C0099400DC3EF9BFFEE9AFEED99FDE842F03D
:10026C00DC23ACF0D0E0FFD0E0FED0E0FDAB822090
:10027C00E7101BEB60BAEC2CFCEF33FFEE33FEED1A
:10028C0033FD0203B1E803F830E705C0F075F00068
:10029C00EF2FFFEE33FEED33FD40B830E7C280AAFE
:1002AC0074F8CC6480CCC86480C8F58204604FC3F9
:1002BC00EB9FF5F0EA9E42F0E99D42F0E89C45F098
:1002CC00603C501DE5825FFFE582D313CB5BCBF422
:1002DC002B5582FB50280ABA002409B9002008804B
:1002EC001DE5825BFBE582D313CF5FCFF4C3132FE5
:1002FC005582FF50090EBE00050DBD00010CC3EB6D
:10030C009FF5F0EA9E42F0E99D42F0E89C45F060D2
:09031C0007CC4820E701B3EC22F4
:1003250075F020800E75F010800575F0087D007E53
:10033500007F003392D530D503120486EC3340108C
:10034500EF33FFEE33FEED33FDEC33FCD5F0ED225C
:0E035500E5F0247EA2D513CC92E7CDCEFF2298
:10036300EDD2E7CD33EC3392D524814006E4FFFE92
:10037300FDFC22FCE4CFCECDCC24E0501174FF80F1
:10038300EDC3CC13CCCD13CDCE13CECF13CF04708E
:07039300F030D5DE02048604
:0D0E7E00ED33EC3360065004EC6480FC2280
:1004B4003A70FA83BCAAE9E43E81E0F8BF9DE9E61C
:1004C4003F80000039283C1ABB9969663DA335E397
:1004D400BF255DE73FC90FDB418DDBCCC44936EE58
:1004E40045C9913FC5B0F83D3F800000C317F534BE
:1004F400452FFA73C60AFDDD1205A304A2E192009A
:100504001420E0159004B474041203E48026120548
:10051400A330E102B20020E0EB8C178D188E198F06
:100524001A9004C874041203E4A817A918AA19ABF2
:100534001A120106ED4C6007300004EC6480FC22C2
:100544001205A3C0E08C178D188E198F1A9004EC35
:1005540074031203E4A817A918AA19AB1A12010606
:10056400ECC517FCEDC518FDEEC519FEEFC51AFF65
:100574009004DC74031203E4D082A817A918AA1902
:10058400AB1AE58230E00712020FB20080A6EFCB6F
:10059400FFEECAFEEDC9FDECC8FC12020F8095ED1A
:1005A40033EC547FCC33920024605007D0E0D0E089
:1005B4000203CF7B837AF97922783E120106EDF9A2
:1005C40033ECF83324815011EFFBEEFA120363127B
:1005D4000325ECB2E7FC120015ED33EC33602F2455
:1005E40003F8C313FCED92E7FDE82481E4501FEC0B
:1005F400F8EDF9EEFAEFFB120363EF04C2E0FCF549
:100604008212032FECB2E7FC120015E58203FAED27
:0E06140033EC3360071413FCED92E7FDEA228D
:10039A00E9D2E7C933E833F892D5EDD2E7CD33ECA9
:0703AA0033FC5002B2D52222
:1003B100EC30E7100FBF000C0EBE00080DBD0004AD
:1003C1000BEB6014A2D5EB13FCED92E7FD2274FF59
:1003D100FCFDFEFF22E480F8A2D574FF13FC7D80B2
:0303E100E480EFC6
:1003E400C0E0EFFBEEFAEDF9ECF8120106D0E0F50F
:1003F400F0EFFBEEFAEDF9ECF8120494A3A3A3A337
:10040400E8C0E0E9C0E0EAC0E0EBC0E0C0F01201FF
:10041400061204A4A3A3A3A3120015D0F0D0E0FBFA
:0D042400D0E0FAD0E0F9D0E0F8D5F0D42215
:100B5D00020E25E493A3F8E493A34003F68001F27B
:100B6D0008DFF48029E493A3F85407240CC8C33399
:100B7D00C4540F4420C8834004F456800146F6DF68
:100B8D00E4800B0102040810204080900BDDE47E10
:100B9D00019360BCA3FF543F30E509541FFEE4935D
:100BAD00A360010ECF54C025E060A840B8E493A324
:100BBD00FAE493A3F8E493A3C8C582C8CAC583CA4F
:100BCD00F0A3C8C582C8CAC583CADFE9DEE780BE07
:010C63000090
:10043100BC000BBE0029EF8DF084FFADF022E4CCAF
:10044100F875F008EF2FFFEE33FEEC33FCEE9DEC78
:10045100984005FCEE9DFE0FD5F0E9E4CEFD22EDBE
:10046100F8F5F0EE8420D21CFEADF075F008EF2F08
:10047100FFED33FD4007985006D5F0F222C398FDF9
:050481000FD5F0EA2296
:0E048600C3E49FFFE49EFEE49DFDE49CFC2287
:10049400E493FC740193FD740293FE740393FF22AE
:1004A400E493F8740193F9740293FA740393FB22AE
:00000001FF
