:03000000020B2CC4
:0C0B2C00787FE4F6D8FD75814E020B7353
:100E0100120E3C120E17120E4DE54D30E0FB12068C
:060E110016534DFE80F3B4
:03000B0002098F58
:10098F00C0E0C0F0C083C082C0D075D000C000C02E
:10099F0001C002C003C004C005C006C007C2AF1229
:1009AF000E2A8F31E543640170380536C3E536955D
:1009BF0048E495474009753600120A63120CAFAC34
:1009CF0031E4120323E4FBFAF9784012020FE4FB3F
:1009DF00FA798078421200151203578F31120DBF2A
:1009EF00804CE543B40202800BE543B403261208A2
:1009FF00A712076FAC31E4120323E4FBFAF9784036
:100A0F0012020FE4FBFA7980784212001512035795
:100A1F008F31801AE543B404150536C3E536954882
:100A2F00E495474009753600120A63120CAF120C99
:100A3F0040120DE7120D6BD2AFD007D006D005D004
:100A4F0004D003D002D001D000D0D0D082D083D038
:040A5F00F0D0E032C1
:0D0E4D00759D0875BCE353A2FB759701224B
:100E3C005389F0438902758A06758C06D28CD2A927
:010E4C002283
:100E1700C2A8D2A9C2AAD2ABD2ACD2AFC2B9D2BAF7
:030E2700C2BC2228
:100BB800013980013880013180012D81012E8101A8
:100BC8003600013000013200012B01012C01013AED
:100BD80000012F00012940013700013440012A009B
:100BE80001354001330102230000022100000425E1
:100BF80000000000043B00000000043F000000006B
:100E2A0043BC8B00000000E5BC30E4FB53BCEFAFD1
:020E3A00BD22D7
:100DBF000522E522AE2170020521142400F582746C
:100DCF00003EF583E531F0C3E5229440E521941F01
:080DDF004005E4F521F5222294
:1008A70085312E052AE52ED394804042E52DD39439
:1008B70080503B852A2CE52B6031FFC3E52C9FFD3B
:1008C700E49400FCE412031E120E5AC004C005C0D3
:1008D70006C007AC3AE4120323D003D002D001D0FC
:1008E700001200151203578F3A0532852C2B852EDF
:1008F7002DE531D395394003853139E531C3953835
:100907005003853138E52AC394FA407BAC32E412B0
:100917000323C004C005C006C007AC3AE412032392
:10092700D003D002D001D00012020FA804A905AA53
:1009370006AB077F007E807DBB7C4412020F8F3E93
:100947008E3D8D3C8C3BC3E5399538FDE49400FC26
:10095700E412031EE4FBFA7980784312020FE4FBEA
:10096700FA79A078401201068F428E418D408C3F64
:10097700E4F53AF532F52AF52CF52B752E81752D10
:0809870081753880753980226A
:100D6B00E54324FE600C14603114600424037043CB
:100D7B008035904000E531F0AF37053774002FF523
:100D8B0082E43400F583E0902000F0C3E537944013
:100D9B007480949F401DE4F53722904000E531F0BC
:100DAB009020007480F022904000E531F0902000FC
:040DBB00E530F0220D
:100A6300E54B24FE607C147003020AFF147003023A
:100A73000B1824036003020B280524E524700205E8
:100A830023D39468E52394014005E4F523F524ACCE
:100A930023AD24E412031E7BDB7A0F7949784012DD
:100AA3000106E4FBFA7934784312020F1205068F2C
:100AB300288E278D268C25E4FFFE7D807C3FAB2886
:100AC300AA27A926A825120015E4FBFAF9784012F3
:100AD300020FE4FBFA797F78431201061203578F62
:100AE3003022E533600C0535E535B4FF0BE4F5330F
:100AF3008006D5350375330185353022052FE52F63
:100B0300B4C803E4F52FE52FD3946440047530FF94
:100B130022E4F530220534E534D394FF4003E4F5B1
:090B230034853430227530802243
:100CAF00AC46E4120323C004C005C006C007AC3035
:100CBF00E4120323D003D002D001D00012020FE4BC
:100CCF00FBFAF97843120015C004C005C006C0072F
:100CDF00AC46E4120323A804A905AA06AB07E4FF58
:100CEF00FEFD7C4312020FA804A905AA06AB07D08C
:100CFF0007D006D005D0041200111203578F3022EF
:04076F00E54460728B
:10077300E4F517F518F519F51AAF3EAE3DAD3CACEF
:100783003B1203578E178F187C007D0A12042574C1
:100793000D2DF8E6F50BAE17AF187C007D0A120499
:1007A300257C007D0A120425740D2DF8E6F50AAEAA
:1007B30017AF187C007D641204257C007D0A1204A7
:1007C30025740D2DF8E6F509AE17AF187C037DE807
:1007D3001204257C007D0A120425740D2DF8E6F51C
:0107E300080D
:1007E40022E54570030208A6E4FFFEFDFCAB42AA25
:1007F40041A940A83F1202AC50030208A6E4FFFE40
:100804007D207C41AB42AA41A940A83F1202AC40E2
:04081400030208A62D
:10081800E4F517F518F519F51AAF42AE41AD40AC3D
:100828003F1203578E178F18AC17AD18E412031E2A
:10083800A804A905AA06AB07AF42AE41AD40AC3F3C
:10084800120011E4FBFA797A784412010612035770
:100858008E198F1A740D2518F8E654FEF5087C00D9
:100868007D641204257C007D0A120425740D2DF880
:10087800E6F509AE19AF1A7C007D0A1204257C0042
:100888007D0A120425740D2DF8E6F50AAE19AF1A83
:0E0898007C007D0A120425740D2DF8E6F50B88
:0108A600222F
:100C0800014A000146020145000144000149000172
:100C18004C00014E00014D00014300014B0002470A
:020C28000004C6
:100DE700E54D20E01430B505E54C04800730B40923
:0A0DF700E54C2405F54E434D0122A2
:10061600E54E14B40800400302076E90062F75F0ED
:1006260003A4C58325F0C58373020647020650025C
:1006360006590206780206970206D902070B020738
:100646003D754301E4FD7F01802F754302E4FD7F84
:10065600028007754303E4FD7F03120D0F7D01E45D
:10066600FF120D0F7D02E4FF120D0F7D03E4FF0262
:100676000749754304E4FD7F04120D0F7D01E4FF75
:10068600120D0F7D02E4FF120D0F7D03AF4B020723
:1006960049E543B4010A754B017D03AF4B02074997
:1006A600E5436402700302076EE543B40307E4F50D
:1006B6004575440122E5436404600302076EE5497B
:1006C6006006754700754804E54A700302076E75B3
:1006D600460222E543B40109754B027D03AF4B8008
:1006E60062E543B40307E4F54475450122E5436436
:1006F600047075E5496006754700754803E54A606C
:100706006775460322E543B40109754B037D03AFC4
:100716004B8030E543B40307754901E4F54A22E509
:100726004364047043E5496006754700754802E571
:100736004A603575460422E543B4010A754B047DCB
:1007460003AF4B020D0FE543B40307E4F549754AC1
:100756000122E543B40411E5496006754700754872
:0907660001E54A60037546052215
:100C2A000408111111110A0D117D23294D89813DE5
:050C3A000109010C009E
:100C4000E50C14600B14600C2402700C7F01800A08
:100C50007F0280067F0480027F087E80E4FDEF5ED5
:100C60006004D2908002C290C291D291C291EEC330
:100C700013FE0DBD08E87408250CF8E6FF850C4C42
:100C8000050CE50CC394044003E4F50C7E80E4FD00
:100C9000EF5E6004D2908002C290C291D291C29164
:0E0CA000EEC313FE0DBD08E8C292D292C292BE
:010CAE002223
:100D0F00EFB40A00504D900D1CF8282873020D3ACD
:100D1F00020D3E020D42020D46020D4A020D4E0219
:100D2F000D52020D56020D5A020D5E7E1180267E67
:100D3F007D80227E23801E7E29801A7E4D80167E26
:100D4F008980127E81800E7E3D800A7E0180067E24
:0B0D5F000980027EFF74082DF8A60634
:010D6A002266
:10000E000203C3E86480F8E933E83360110460F05A
:10001E00ED33EC337009E8FCE9FDEAFEEBFF220458
:10002E0060DED3EB9FEA9EE99DE8C2E78CF0C2F753
:10003E0095F0400CE8CCF8E9CDF9EACEFAEBCFFB1F
:10004E0012038E85D0F05804700320D5B3E80470E7
:10005E00075002B2D50203CD92D5EC0460F7E4CC82
:10006E00C0E0C398F8603B94186008400DD0E0FBE8
:10007E000203A5E4FBFAC9FC8028E830E406E4C9D3
:10008E00FBE4CAFCE830E305E4C9CACBFCE854073C
:10009E006010F8C3E913F9EA13FAEB13FBEC13FC47
:1000AE00D8F130F52FC3E49CFCEF9BFFEE9AFEEDEA
:1000BE0099FDD0E0FBEF4E4D4C701222DB03020394
:1000CE00CAEC2CFCEF33FFEE33FEED33FDED30E7E3
:1000DE00EB0203A5EF2BFFEE3AFEED39FDD0E0FB70
:1000EE0050130BBB00030203CDED13FDEE13FEEF19
:0800FE0013FFEC13FC0203A543
:10010600EC4D6011E8497017ED33EC3304600DE4F3
:10011600FCFFFEFD22E933E8330470F80203C31244
:10012600038E58046009E4CC248150062850090245
:1001360003CD2840030203CAC0E0EB4A7044B980ED
:1001460006D0E0FB0203B9EF4E701CBD8008EBFF42
:10015600EAFEE9FD80EBE98DF0A4FEE5F00201EF91
:10016600E9CDF9EAFEEBFFEF89F0A4FCE5F0CE89D4
:10017600F0A42EFFE435F0CD89F0A42DFEE435F091
:100186008067EF4E7005BD80D780C3EF8BF0A4ACBF
:10019600F0EE8BF0A42CFCE435F0F8EF8AF0A42CFA
:1001A600E5F038FCE433CB8DF0A42CFCE5F03BF80D
:1001B600EE8AF0A42CFCE5F038F8E433CF89F0A4FD
:1001C6002CFCE5F038CF3400CE89F0A42FFFE5F003
:1001D6003EFEE433C98DF0A42EFEE5F039CD8AF05B
:1001E600A42FFFE5F03EFEE43DFD33D0E0FB5007D3
:1001F6000BBB000F0203CDEC2CFCEF33FFEE33FEFE
:06020600ED33FD0203A52B
:10020C000203CDEC5D046005E8590470030203C3DE
:10021C0012038E580460F6EC4860F2EC7004FDFE9C
:10022C00FF22C860DB2481C85009C39860025006C5
:10023C000203CA9850CAF582E9294B4A7005AB8271
:10024C000203B975F0007C1A7880C3EF9BEE9AED2F
:10025C0099400DC3EF9BFFEE9AFEED99FDE842F03D
:10026C00DC23ACF0D0E0FFD0E0FED0E0FDAB822090
:10027C00E7101BEB60BAEC2CFCEF33FFEE33FEED1A
:10028C0033FD0203A5E803F830E705C0F075F00074
:10029C00EF2FFFEE33FEED33FD40B830E7C280AAFE
:1002AC0074F8CC6480CCC86480C8F582046043C305
:1002BC00EB9FF5F0EA9E42F0E99D42F0E89C45F098
:1002CC0060305018E5825FFFE582F42B5582FB50BD
:1002DC00210ABA001D09B90019088016E5825BFBDA
:1002EC00E582F42F5582FF50090EBE00050DBD00AE
:1002FC00010CC3EB9FF5F0EA9E42F0E99D42F0E859
:0D030C009C45F06007CC4820E701B3EC22CF
:1003190075F020800E75F010800575F0087D007E5F
:10032900007F003392D530D50312047AEC334010A4
:10033900EF33FFEE33FEED33FDEC33FCD5F0ED2268
:0E034900E5F0247EA2D513CC92E7CDCEFF22A4
:10035700EDD2E7CD33EC3392D524814006E4FFFE9E
:10036700FDFC22FCE4CFCECDCC24E0501174FF80FD
:10037700EDC3CC13CCCD13CDCE13CECF13CF04709A
:07038700F030D5DE02047A1C
:0D0E5A00ED33EC3360065004EC6480FC22A4
:1004A8003A70FA83BCAAE9E43E81E0F8BF9DE9E628
:1004B8003F80000039283C1ABB9969663DA335E3A3
:1004C800BF255DE73FC90FDB418DDBCCC44936EE64
:1004D80045C9913FC5B0F83D3F800000C317F534CA
:1004E800452FFA73C60AFDDD12059704A2E19200B2
:1004F8001420E0159004A874041203D8802612056D
:100508009730E102B20020E0EB8C178D188E198F1E
:100518001A9004BC74041203D8A817A918AA19AB16
:100528001A120106ED4C6007300004EC6480FC22CE
:10053800120597C0E08C178D188E198F1A9004E059
:1005480074031203D8A817A918AA19AB1A1201061E
:10055800ECC517FCEDC518FDEEC519FEEFC51AFF71
:100568009004D074031203D8D082A817A918AA1926
:10057800AB1AE58230E00712020FB20080A6EFCB7B
:10058800FFEECAFEEDC9FDECC8FC12020F8095ED26
:1005980033EC547FCC33920024605007D0E0D0E095
:1005A8000203C37B837AF97922783E120106EDF9BA
:1005B80033ECF83324815011EFFBEEFA1203571293
:1005C8000319ECB2E7FC120015ED33EC33602F246D
:1005D80003F8C313FCED92E7FDE82481E4501FEC17
:1005E800F8EDF9EEFAEFFB120357EF04C2E0FCF561
:1005F80082120323ECB2E7FC120015E58203FAED40
:0E06080033EC3360071413FCED92E7FDEA2299
:10038E00E9D2E7C933E833F892D5EDD2E7CD33ECB5
:07039E0033FC5002B2D5222E
:1003A500EC30E7100FBF000C0EBE00080DBD0004B9
:1003B5000BEB6014A2D5EB13FCED92E7FD2274FF65
:1003C500FCFDFEFF22E480F8A2D574FF13FC7D80BE
:0303D500E480EFD2
:1003D800C0E0EFFBEEFAEDF9ECF8120106D0E0F51B
:1003E800F0EFFBEEFAEDF9ECF8120488A3A3A3A34F
:1003F800E8C0E0E9C0E0EAC0E0EBC0E0C0F012010C
:1004080006120498A3A3A3A3120015D0F0D0E0FB12
:0D041800D0E0FAD0E0F9D0E0F8D5F0D42221
:100B3800020E01E493A3F8E493A34003F68001F2C4
:100B480008DFF48029E493A3F85407240CC8C333BE
:100B5800C4540F4420C8834004F456800146F6DF8D
:100B6800E4800B0102040810204080900BB8E47E5A
:100B7800019360BCA3FF543F30E509541FFEE49382
:100B8800A360010ECF54C025E060A840B8E493A349
:100B9800FAE493A3F8E493A3C8C582C8CAC583CA74
:100BA800F0A3C8C582C8CAC583CADFE9DEE780BE2C
:010C3F0000B4
:10042500BC000BBE0029EF8DF084FFADF022E4CCBB
:10043500F875F008EF2FFFEE33FEEC33FCEE9DEC84
:10044500984005FCEE9DFE0FD5F0E9E4CEFD22EDCA
:10045500F8F5F0EE8420D21CFEADF075F008EF2F14
:10046500FFED33FD4007985006D5F0F222C398FD05
:050475000FD5F0EA22A2
:0E047A00C3E49FFFE49EFEE49DFDE49CFC2293
:10048800E493FC740193FD740293FE740393FF22BA
:10049800E493F8740193F9740293FA740393FB22BA
:00000001FF
