:0300000002000EED
:0C000E00787FE4F6D8FD75811F020055D4
:1001DF00011B000108000409FEFEFEFE01190002CA
:0701EF00170000021C0000D4
:10020A005389F0438902758A06758C06D28CD2A965
:01021A0022C1
:1001F700C2A8D2A9C2AAC2ABD2ACD2AFC2B9D2BA34
:03020700C2BC2254
:10009A00E51914600B14600C2402700C7F01800AAD
:1000AA007F0280067F0480027F087E80E4FDEF5E87
:1000BA006004D2908002C290C291D291C291EEC3E2
:1000CA0013FE53067F0DBD08E574092519F8E6FFEE
:1000DA000519E519C394044003E4F5197E80E4FD8B
:1000EA00EF5E6004D2908002C290C291D291C29116
:0E00FA00EEC313FE0DBD08E8C292D292C29270
:0101080022D4
:03000B00020109E6
:10010900C0E0C083C082C0D075D000C000C005C0A7
:0301190006C00716
:10011C00C2AF051DE51D7002051C6414451C702939
:10012C00906000E0FF740D2508F8A607E4F00508C0
:10013C00E508B40A0375080012009A0518E5187052
:0B014C00020517751C00751D00D2AFE6
:10015700D007D006D005D000D0D0D082D083D0E051
:010167003265
:10016800EFB409005046900175F8282873020190F1
:1001780002019402019802019C0201A00201A4025A
:1001880001A80201AC0201B07E1180227E7D801E92
:100198007E23801A7E2980167E4D80127E89800EED
:1001A8007E81800A7E3D80067E0180027E09740978
:0401B8002DF8A60672
:0101BC002220
:1001BD0012020A1201F7E51B650860FA740D251B82
:1001CD00F8E6902000F0051BE51BB40AE9E4F51BE9
:0201DD0080E4BC
:10001A000201BDE493A3F8E493A34003F68001F23E
:10002A0008DFF48029E493A3F85407240CC8C333E7
:10003A00C4540F4420C8834004F456800146F6DFB6
:10004A00E4800B01020408102040809001DFE47E66
:10005A00019360BCA3FF543F30E509541FFEE493AB
:10006A00A360010ECF54C025E060A840B8E493A372
:10007A00FAE493A3F8E493A3C8C582C8CAC583CA9D
:10008A00F0A3C8C582C8CAC583CADFE9DEE780BE55
:0101F6000008
:00000001FF
