:03000000020BF8F8
:0C0BF800787FE4F6D8FD758167020C3FA1
:100B5C000422111111110A4E117D23294D89813D59
:100B6C000109013B00015B00014400014100015AF5
:100B7C0080015980014A00014080016700013F005B
:100B8C00013000012E000158000166000121000116
:100B9C002900014C00013E00014640012F40014755
:100BAC0040014501014B00014D00013301013901A8
:100BBC00013881013A8101280002420000025C00E8
:100BCC00000231000002260000024800000236003C
:100BDC000202340000023C0004042A00000000045D
:0B0BEC005E000000000462000000003A
:100E4100120E7C120E57120E8DE55B30E0FB12067E
:060E510016535BFE80F366
:03000B00020A8E58
:100A8E00C0E0C0F0C083C082C0D075D000C000C02E
:100A9E0001C002C003C004C005C006C007C2AF1229
:100AAE000E6A8F40E529640170300549E5497002F0
:100ABE000548C3953DE548953C40061209BF120C0A
:100ACE00F3AC40E4120323E4FBFAF9784012020F70
:100ADE001203578F40120E07804EE529B402028092
:100AEE000BE529B403261208B612077EAC40E412B9
:100AFE000323E4FBFAF9784012020FE4FBFA798043
:100B0E0078421200151203578F40801CE529B40459
:100B1E00170549E54970020548C3953DE548953CE2
:100B2E0040061209BF120CF3120C84120E27120D7E
:100B3E00B3D2AFD007D006D005D004D003D002D0A8
:0E0B4E0001D000D0D0D082D083D0F0D0E032E1
:100CF300AC36AD37E412031EC004C005C006C007FE
:100D0300AC3FE4120323D003D002D001D00012027F
:100D13000FE4FBFAF97843120015C004C005C006BE
:100D2300C007AC36AD37E412031EA804A905AA0612
:100D3300AB07E4FFFEFD7C4312020FA804A905AA3A
:100D430006AB07D007D006D005D00412001112035A
:040D5300578F3F2255
:100DB300E52924FE600C146031146004240370439D
:100DC3008035904000E540F0AF4C054C74002FF5A2
:100DD30082E43400F583E0902000F0C3E54C9440B6
:100DE3007480949F401DE4F54C22904000E540F050
:100DF3009020007480F022904000E540F0902000A5
:040E0300E53FF022B5
:0609BF00754800754900B7
:1009C500E54B24FE607C147003020A611470030277
:1009D5000A7A24036003020A8A0527E527700205BF
:1009E50026D39468E52694014005E4F526F527AC61
:1009F50026AD27E412031E7BDB7A0F794978401276
:100A05000106E4FBFA7934784312020F1205068FCA
:100A15002D8E2C8D2B8C2AE4FFFE7D807C3FAB2D0B
:100A2500AA2CA92BA82A120015E4FBFAF978401282
:100A3500020FE4FBFA797F78431201061203578F00
:100A45003F22E545600C0547E547B4FF0BE4F54556
:100A55008006D5470375450185473F22053EE53E9E
:100A6500B4C803E4F53EE53ED394644004753FFF06
:100A750022E4F53F220546E546D394FF4003E4F51D
:090A85004685463F22753F8022A0
:04077E00E52E607292
:10078200E4F508F509F50AF50BAF61AE60AD5FACB3
:100792005E1203578E088F097C007D0A12042574AD
:1007A2004E2DF8E6F525AE08AF097C007D0A12044D
:1007B200257C007D0A120425744E2DF8E6F524AE40
:1007C20008AF097C007D641204257C007D0A1204B6
:1007D20025744E2DF8E6F523AE08AF097C037DE8BB
:1007E2001204257C007D0A120425744E2DF8E6F5CC
:0107F20022E4
:1007F30022E53070030208B5E4FFFEFDFCAB65AAF9
:1008030064A963A8621202AC50030208B5E4FFFEB8
:100813007D207C41AB65AA64A963A8621202AC4047
:04082300030208B50F
:10082700E4F508F509F50AF50BAF65AE64AD63AC01
:10083700621203578E088F09AC08AD09E412031E34
:10084700A804A905AA06AB07AF65AE64AD63AC62A1
:10085700120011E4FBFA797A784412010612035761
:100867008E0A8F0B744E2509F8E654FEF5227C009C
:100877007D641204257C007D0A120425744E2DF830
:10088700E6F523AE0AAF0B7C007D0A1204257C0037
:100897007D0A120425744E2DF8E6F524AE0AAF0B37
:0E08A7007C007D0A120425744E2DF8E6F5251E
:0108B5002220
:1008B60085403A0532E53270020531E53AD3948037
:1008C600404CE538D394805045853239E533603B5A
:1008D600FFC3E5399FFDE49400FCE412031E120EEB
:1008E6009AC004C005C006C007AC5CAD5DE4120347
:1008F6001ED003D002D001D0001200151203578E6D
:100906005C8F5D0543E54370020542853933853AC0
:1009160038E540D3955A400385405AE540C395597A
:100926005003854059C3E53294FAE53194005003EB
:100936000209BEAC42AD43E412031EC004C005C0AA
:1009460006C007AC5CAD5DE412031ED003D002D036
:1009560001D00012020FA804A905AA06AB077F0062
:100966007E807DBB7C4412020F8F618E608D5F8C12
:100976005EC3E55A9559FDE49400FCE412031EE4B7
:10098600FBFA7980784312020FE4FBFA79A07840EB
:100996001201068F658E648D638C62E4F55CF55DED
:1009A600F542F543F531F532F539F533753A81758A
:0909B6003881755980755A8022C0
:10061600E56614B40800400302077D90062F75F0C6
:1006260003A4C58325F0C58373020647020650025C
:1006360006590206780206970206DC02071402072C
:1006460049752901E4FD7F01802F752902E4FD7FAC
:10065600028007752903E4FD7F03120D577D01E42F
:10066600FF120D577D02E4FF120D577D03E4FF02D2
:100676000755752904E4FD7F04120D577D01E4FF3B
:10068600120D577D02E4FF120D577D03AF4B020793
:1006960055E529B4010A754B017D03AF4B02075599
:1006A600E5296402700302077DE529B40307E4F532
:1006B60030752E0122E5296404600302077DE541B9
:1006C6006006753C00753D04E544700302077D75C0
:1006D600360075370222E529B40109754B027D0300
:1006E600AF4B806BE529B40307E4F52E7530012284
:1006F600E5296404600302077DE5416006753C0058
:10070600753D03E544607075360075370322E529AB
:10071600B40109754B037D03AF4B8033E529B40360
:1007260007754101E4F54422E52964047049E54171
:100736006006753C00753D02E544603B7536007504
:10074600370422E529B4010A754B047D03AF4B0239
:100756000D57E529B40307E4F54175440122E5295F
:10076600B40414E5416006753C00753D01E544603E
:080776000675360075370522F7
:100E2700E55B20E01430B505E55804800730B409C8
:0A0E3700E5582405F566435B01222F
:100E0700AF21052174002FF582E43400F583E54016
:100E1700F0C3E52194407480949F4003E4F52122B8
:100C8400E53B14600B14600C2402700C7F01800A95
:100C94007F0280067F0480027F087E80E4FDEF5E91
:100CA4006004D2908002C290C291D291C291EEC3EC
:100CB40013FE0DBD08E87422253BF8E6FF853B587A
:100CC400053BE53BC394044003E4F53B7E80E4FD2F
:100CD400EF5E6004D2908002C290C291D291C29120
:0E0CE400EEC313FE0DBD08E8C292D292C2927A
:010CF20022DF
:100D5700EFB40A00504D900D64F8282873020D82F5
:100D6700020D86020D8A020D8E020D92020D960269
:100D77000D9A020D9E020DA2020DA67E1180267EFF
:100D87007D80227E23801E7E29801A7E4D80167EDE
:100D97008980127E81800E7E3D800A7E0180067EDC
:0B0DA7000980027EFF74222DF8A606D2
:010DB200221E
:100E6A0043BC8B00000000E5BC30E4FB53BCEFAF91
:020E7A00BD2297
:0D0E8D00759D1075BCE453A2FB7597012202
:100E5700C2A8D2A9C2AAD2ABD2ACD2AFC2B9D2BAB7
:030E6700C2BC22E8
:100E7C005389F0438902758A06758C06D28CD2A9E7
:010E8C002243
:10000E000203C3E86480F8E933E83360110460F05A
:10001E00ED33EC337009E8FCE9FDEAFEEBFF220458
:10002E0060DED3EB9FEA9EE99DE8C2E78CF0C2F753
:10003E0095F0400CE8CCF8E9CDF9EACEFAEBCFFB1F
:10004E0012038E85D0F05804700320D5B3E80470E7
:10005E00075002B2D50203CD92D5EC0460F7E4CC82
:10006E00C0E0C398F8603B94186008400DD0E0FBE8
:10007E000203A5E4FBFAC9FC8028E830E406E4C9D3
:10008E00FBE4CAFCE830E305E4C9CACBFCE854073C
:10009E006010F8C3E913F9EA13FAEB13FBEC13FC47
:1000AE00D8F130F52FC3E49CFCEF9BFFEE9AFEEDEA
:1000BE0099FDD0E0FBEF4E4D4C701222DB03020394
:1000CE00CAEC2CFCEF33FFEE33FEED33FDED30E7E3
:1000DE00EB0203A5EF2BFFEE3AFEED39FDD0E0FB70
:1000EE0050130BBB00030203CDED13FDEE13FEEF19
:0800FE0013FFEC13FC0203A543
:10010600EC4D6011E8497017ED33EC3304600DE4F3
:10011600FCFFFEFD22E933E8330470F80203C31244
:10012600038E58046009E4CC248150062850090245
:1001360003CD2840030203CAC0E0EB4A7044B980ED
:1001460006D0E0FB0203B9EF4E701CBD8008EBFF42
:10015600EAFEE9FD80EBE98DF0A4FEE5F00201EF91
:10016600E9CDF9EAFEEBFFEF89F0A4FCE5F0CE89D4
:10017600F0A42EFFE435F0CD89F0A42DFEE435F091
:100186008067EF4E7005BD80D780C3EF8BF0A4ACBF
:10019600F0EE8BF0A42CFCE435F0F8EF8AF0A42CFA
:1001A600E5F038FCE433CB8DF0A42CFCE5F03BF80D
:1001B600EE8AF0A42CFCE5F038F8E433CF89F0A4FD
:1001C6002CFCE5F038CF3400CE89F0A42FFFE5F003
:1001D6003EFEE433C98DF0A42EFEE5F039CD8AF05B
:1001E600A42FFFE5F03EFEE43DFD33D0E0FB5007D3
:1001F6000BBB000F0203CDEC2CFCEF33FFEE33FEFE
:06020600ED33FD0203A52B
:10020C000203CDEC5D046005E8590470030203C3DE
:10021C0012038E580460F6EC4860F2EC7004FDFE9C
:10022C00FF22C860DB2481C85009C39860025006C5
:10023C000203CA9850CAF582E9294B4A7005AB8271
:10024C000203B975F0007C1A7880C3EF9BEE9AED2F
:10025C0099400DC3EF9BFFEE9AFEED99FDE842F03D
:10026C00DC23ACF0D0E0FFD0E0FED0E0FDAB822090
:10027C00E7101BEB60BAEC2CFCEF33FFEE33FEED1A
:10028C0033FD0203A5E803F830E705C0F075F00074
:10029C00EF2FFFEE33FEED33FD40B830E7C280AAFE
:1002AC0074F8CC6480CCC86480C8F582046043C305
:1002BC00EB9FF5F0EA9E42F0E99D42F0E89C45F098
:1002CC0060305018E5825FFFE582F42B5582FB50BD
:1002DC00210ABA001D09B90019088016E5825BFBDA
:1002EC00E582F42F5582FF50090EBE00050DBD00AE
:1002FC00010CC3EB9FF5F0EA9E42F0E99D42F0E859
:0D030C009C45F06007CC4820E701B3EC22CF
:1003190075F020800E75F010800575F0087D007E5F
:10032900007F003392D530D50312047AEC334010A4
:10033900EF33FFEE33FEED33FDEC33FCD5F0ED2268
:0E034900E5F0247EA2D513CC92E7CDCEFF22A4
:10035700EDD2E7CD33EC3392D524814006E4FFFE9E
:10036700FDFC22FCE4CFCECDCC24E0501174FF80FD
:10037700EDC3CC13CCCD13CDCE13CECF13CF04709A
:07038700F030D5DE02047A1C
:0D0E9A00ED33EC3360065004EC6480FC2264
:1004A8003A70FA83BCAAE9E43E81E0F8BF9DE9E628
:1004B8003F80000039283C1ABB9969663DA335E3A3
:1004C800BF255DE73FC90FDB418DDBCCC44936EE64
:1004D80045C9913FC5B0F83D3F800000C317F534CA
:1004E800452FFA73C60AFDDD12059704A2E19200B2
:1004F8001420E0159004A874041203D8802612056D
:100508009730E102B20020E0EB8C088D098E0A8F4B
:100518000B9004BC74041203D8A808A909AA0AAB52
:100528000B120106ED4C6007300004EC6480FC22DD
:10053800120597C0E08C088D098E0A8F0B9004E095
:1005480074031203D8A808A909AA0AAB0B1201065A
:10055800ECC508FCEDC509FDEEC50AFEEFC50BFFAD
:100568009004D074031203D8D082A808A909AA0A53
:10057800AB0BE58230E00712020FB20080A6EFCB8A
:10058800FFEECAFEEDC9FDECC8FC12020F8095ED26
:1005980033EC547FCC33920024605007D0E0D0E095
:1005A8000203C37B837AF97922783E120106EDF9BA
:1005B80033ECF83324815011EFFBEEFA1203571293
:1005C8000319ECB2E7FC120015ED33EC33602F246D
:1005D80003F8C313FCED92E7FDE82481E4501FEC17
:1005E800F8EDF9EEFAEFFB120357EF04C2E0FCF561
:1005F80082120323ECB2E7FC120015E58203FAED40
:0E06080033EC3360071413FCED92E7FDEA2299
:10038E00E9D2E7C933E833F892D5EDD2E7CD33ECB5
:07039E0033FC5002B2D5222E
:1003A500EC30E7100FBF000C0EBE00080DBD0004B9
:1003B5000BEB6014A2D5EB13FCED92E7FD2274FF65
:1003C500FCFDFEFF22E480F8A2D574FF13FC7D80BE
:0303D500E480EFD2
:1003D800C0E0EFFBEEFAEDF9ECF8120106D0E0F51B
:1003E800F0EFFBEEFAEDF9ECF8120488A3A3A3A34F
:1003F800E8C0E0E9C0E0EAC0E0EBC0E0C0F012010C
:1004080006120498A3A3A3A3120015D0F0D0E0FB12
:0D041800D0E0FAD0E0F9D0E0F8D5F0D42221
:100C0400020E41E493A3F8E493A34003F68001F2B7
:100C140008DFF48029E493A3F85407240CC8C333F1
:100C2400C4540F4420C8834004F456800146F6DFC0
:100C3400E4800B0102040810204080900B5CE47EE9
:100C4400019360BCA3FF543F30E509541FFEE493B5
:100C5400A360010ECF54C025E060A840B8E493A37C
:100C6400FAE493A3F8E493A3C8C582C8CAC583CAA7
:100C7400F0A3C8C582C8CAC583CADFE9DEE780BE5F
:010BF70000FD
:10042500BC000BBE0029EF8DF084FFADF022E4CCBB
:10043500F875F008EF2FFFEE33FEEC33FCEE9DEC84
:10044500984005FCEE9DFE0FD5F0E9E4CEFD22EDCA
:10045500F8F5F0EE8420D21CFEADF075F008EF2F14
:10046500FFED33FD4007985006D5F0F222C398FD05
:050475000FD5F0EA22A2
:0E047A00C3E49FFFE49EFEE49DFDE49CFC2293
:10048800E493FC740193FD740293FE740393FF22BA
:10049800E493F8740193F9740293FA740393FB22BA
:00000001FF
