:0300000002000EED
:0C000E00787FE4F6D8FD758110020055E3
:1001DA000408413B6B4D010E00020C0000020F00A7
:0101EA000014
:1001EC005389F0438902758A06758C06D28CD2A984
:0101FC0022E0
:1001C700C2A8D2A9C2AAC2ABD2ACD2AFC2B9D2BA64
:0301D700C2BC2285
:10009A00E50E14600B14600C2402700C7F01800AB8
:1000AA007F0280067F0480027F087E80E4FDEF5E87
:1000BA006004D2908002C290C291D291C291EEC3E2
:1000CA0013FE0DBD08E87408250EF8E6FF050EE5D7
:1000DA000EC394044003E4F50E7E80E4FDEF5E60F7
:1000EA0004D2908002C290C291D291C291EEC313FF
:0B00FA00FE0DBD08E8C292D292C29237
:0101050022D7
:03000B000201638C
:10016300C0E0C0D075D000C000C005C006C007C243
:10017300AF0510E5107002050F6414450F700FF5FD
:100183000FF51012009A050DE50D7002050CD2AFA4
:0D019300D007D006D005D000D0D0D0E0328B
:10010600EE704CEFB409005046900116F82828739B
:1001160002013102013502013902013D02014102AB
:10012600014502014902014D0201517D1180227DE6
:100136007D801E7D23801A7D2980167D4D80127D4F
:1001460089800E7D81800A7D3D80067D0180027D4D
:0C01560009850908850A09850B0A8D0B34
:01016200227A
:1001A000E4FC1201EC1201C7C3E50D9464E50C9464
:1001B0000040F5E4F50CF50DECFF7E001201060C95
:0701C000BC0AE5E4FC80E14C
:10001A000201A0E493A3F8E493A34003F68001F25B
:10002A0008DFF48029E493A3F85407240CC8C333E7
:10003A00C4540F4420C8834004F456800146F6DFB6
:10004A00E4800B01020408102040809001DAE47E6B
:10005A00019360BCA3FF543F30E509541FFEE493AB
:10006A00A360010ECF54C025E060A840B8E493A372
:10007A00FAE493A3F8E493A3C8C582C8CAC583CA9D
:10008A00F0A3C8C582C8CAC583CADFE9DEE780BE55
:0101EB000013
:00000001FF
