:0300000002000EED
:0C000E00787FE4F6D8FD758112020055E1
:1001D9000408EFEFEFEF010E00011100020C00001F
:0401E900020F000001
:100201005389F0438902758A06758C06D28CD2A96E
:0102110022CA
:1001EE00C2A8D2A9C2AAC2ABD2ACD2AFC2B9D2BA3D
:0301FE00C2BC225E
:10009A00E50E14600B14600C2402700C7F01800AB8
:1000AA007F0280067F0480027F087E80E4FDEF5E87
:1000BA006004D2908002C290C291D291C291EEC3E2
:1000CA0013FE53067F0DBD08E57408250EF8E6FFFA
:1000DA00850E12050EE50EC394044003E4F50E7E68
:1000EA0080E4FDEF5E6004D2908002C290C291D299
:1000FA0091C291EEC313FE0DBD08E8C292D292C21C
:01010A009262
:01010B0022D1
:1001A900E51120E01330B5040512800930B4097453
:0901B900052512F5124311012283
:03000B0002016986
:10016900C0E0C0D075D000C000C005C006C007C23D
:10017900AF0510E5107002050F6414450F7012F5F4
:100189000FF51012009A1201A9050DE50D7002056F
:100199000CD2AFD007D006D005D000D0D0D0E032F5
:10010C00EE704CEFB40900504690011CF82828738F
:10011C0002013702013B02013F0201430201470287
:10012C00014B02014F0201530201577D1180227DC8
:10013C007D801E7D23801A7D2980167D4D80127D49
:10014C0089800E7D81800A7D3D80067D0180027D47
:0C015C00097508FF7509FF750AFF8D0B7F
:010168002274
:1001C2001202011201EEE51130E0FBAF127E0012C5
:0701D200010C5311FE80EF48
:10001A000201C2E493A3F8E493A34003F68001F239
:10002A0008DFF48029E493A3F85407240CC8C333E7
:10003A00C4540F4420C8834004F456800146F6DFB6
:10004A00E4800B01020408102040809001D9E47E6C
:10005A00019360BCA3FF543F30E509541FFEE493AB
:10006A00A360010ECF54C025E060A840B8E493A372
:10007A00FAE493A3F8E493A3C8C582C8CAC583CA9D
:10008A00F0A3C8C582C8CAC583CADFE9DEE780BE55
:0101ED000011
:00000001FF
